:100000000C9434000C943E000C943E000C943E0082
:100010000C943E000C943E000C943E000C943E0068
:100020000C943E000C943E000C943E000C943E0058
:100030000C943E000C943E000C943E000C943E0048
:100040000C943E000C943E000C943E000C943E0038
:100050000C943E000C943E000C943E000C943E0028
:100060000C943E000C943E0011241FBECFEFD8E04C
:10007000DEBFCDBF0E9440000C946D000C940000C8
:10008000CFEFD8E0DEBFCDBF0E9459000E944900EB
:1000900008950E946B000E9462000E9469000E9405
:1000A00062000E946B000E9462000E946200F1CF19
:1000B000089511241FBE259A2D983F9A4798529A69
:1000C0005A98089518EC28EC2A95F1F71A95D9F763
:0E00D0000895599A089559980895F894FFCF0D
:00000001FF
